{
  "contractName": "Token",
  "abi": [
    {
      "inputs": [
        {
          "internalType": "string",
          "name": "name",
          "type": "string"
        },
        {
          "internalType": "string",
          "name": "symbol",
          "type": "string"
        }
      ],
      "stateMutability": "nonpayable",
      "type": "constructor"
    },
    {
      "anonymous": false,
      "inputs": [
        {
          "indexed": true,
          "internalType": "address",
          "name": "owner",
          "type": "address"
        },
        {
          "indexed": true,
          "internalType": "address",
          "name": "approved",
          "type": "address"
        },
        {
          "indexed": true,
          "internalType": "uint256",
          "name": "tokenId",
          "type": "uint256"
        }
      ],
      "name": "Approval",
      "type": "event"
    },
    {
      "anonymous": false,
      "inputs": [
        {
          "indexed": true,
          "internalType": "address",
          "name": "owner",
          "type": "address"
        },
        {
          "indexed": true,
          "internalType": "address",
          "name": "operator",
          "type": "address"
        },
        {
          "indexed": false,
          "internalType": "bool",
          "name": "approved",
          "type": "bool"
        }
      ],
      "name": "ApprovalForAll",
      "type": "event"
    },
    {
      "anonymous": false,
      "inputs": [
        {
          "indexed": true,
          "internalType": "address",
          "name": "previousOwner",
          "type": "address"
        },
        {
          "indexed": true,
          "internalType": "address",
          "name": "newOwner",
          "type": "address"
        }
      ],
      "name": "OwnershipTransferred",
      "type": "event"
    },
    {
      "anonymous": false,
      "inputs": [
        {
          "indexed": true,
          "internalType": "address",
          "name": "from",
          "type": "address"
        },
        {
          "indexed": true,
          "internalType": "address",
          "name": "to",
          "type": "address"
        },
        {
          "indexed": true,
          "internalType": "uint256",
          "name": "tokenId",
          "type": "uint256"
        }
      ],
      "name": "Transfer",
      "type": "event"
    },
    {
      "inputs": [
        {
          "internalType": "address",
          "name": "to",
          "type": "address"
        },
        {
          "internalType": "uint256",
          "name": "tokenId",
          "type": "uint256"
        }
      ],
      "name": "approve",
      "outputs": [],
      "stateMutability": "nonpayable",
      "type": "function"
    },
    {
      "inputs": [
        {
          "internalType": "address",
          "name": "owner",
          "type": "address"
        }
      ],
      "name": "balanceOf",
      "outputs": [
        {
          "internalType": "uint256",
          "name": "",
          "type": "uint256"
        }
      ],
      "stateMutability": "view",
      "type": "function",
      "constant": true
    },
    {
      "inputs": [
        {
          "internalType": "uint256",
          "name": "tokenId",
          "type": "uint256"
        }
      ],
      "name": "getApproved",
      "outputs": [
        {
          "internalType": "address",
          "name": "",
          "type": "address"
        }
      ],
      "stateMutability": "view",
      "type": "function",
      "constant": true
    },
    {
      "inputs": [
        {
          "internalType": "address",
          "name": "owner",
          "type": "address"
        },
        {
          "internalType": "address",
          "name": "operator",
          "type": "address"
        }
      ],
      "name": "isApprovedForAll",
      "outputs": [
        {
          "internalType": "bool",
          "name": "",
          "type": "bool"
        }
      ],
      "stateMutability": "view",
      "type": "function",
      "constant": true
    },
    {
      "inputs": [],
      "name": "name",
      "outputs": [
        {
          "internalType": "string",
          "name": "",
          "type": "string"
        }
      ],
      "stateMutability": "view",
      "type": "function",
      "constant": true
    },
    {
      "inputs": [],
      "name": "owner",
      "outputs": [
        {
          "internalType": "address",
          "name": "",
          "type": "address"
        }
      ],
      "stateMutability": "view",
      "type": "function",
      "constant": true
    },
    {
      "inputs": [
        {
          "internalType": "uint256",
          "name": "tokenId",
          "type": "uint256"
        }
      ],
      "name": "ownerOf",
      "outputs": [
        {
          "internalType": "address",
          "name": "",
          "type": "address"
        }
      ],
      "stateMutability": "view",
      "type": "function",
      "constant": true
    },
    {
      "inputs": [],
      "name": "renounceOwnership",
      "outputs": [],
      "stateMutability": "nonpayable",
      "type": "function"
    },
    {
      "inputs": [
        {
          "internalType": "address",
          "name": "from",
          "type": "address"
        },
        {
          "internalType": "address",
          "name": "to",
          "type": "address"
        },
        {
          "internalType": "uint256",
          "name": "tokenId",
          "type": "uint256"
        }
      ],
      "name": "safeTransferFrom",
      "outputs": [],
      "stateMutability": "nonpayable",
      "type": "function"
    },
    {
      "inputs": [
        {
          "internalType": "address",
          "name": "from",
          "type": "address"
        },
        {
          "internalType": "address",
          "name": "to",
          "type": "address"
        },
        {
          "internalType": "uint256",
          "name": "tokenId",
          "type": "uint256"
        },
        {
          "internalType": "bytes",
          "name": "_data",
          "type": "bytes"
        }
      ],
      "name": "safeTransferFrom",
      "outputs": [],
      "stateMutability": "nonpayable",
      "type": "function"
    },
    {
      "inputs": [
        {
          "internalType": "address",
          "name": "operator",
          "type": "address"
        },
        {
          "internalType": "bool",
          "name": "approved",
          "type": "bool"
        }
      ],
      "name": "setApprovalForAll",
      "outputs": [],
      "stateMutability": "nonpayable",
      "type": "function"
    },
    {
      "inputs": [
        {
          "internalType": "bytes4",
          "name": "interfaceId",
          "type": "bytes4"
        }
      ],
      "name": "supportsInterface",
      "outputs": [
        {
          "internalType": "bool",
          "name": "",
          "type": "bool"
        }
      ],
      "stateMutability": "view",
      "type": "function",
      "constant": true
    },
    {
      "inputs": [],
      "name": "symbol",
      "outputs": [
        {
          "internalType": "string",
          "name": "",
          "type": "string"
        }
      ],
      "stateMutability": "view",
      "type": "function",
      "constant": true
    },
    {
      "inputs": [
        {
          "internalType": "uint256",
          "name": "tokenId",
          "type": "uint256"
        }
      ],
      "name": "tokenURI",
      "outputs": [
        {
          "internalType": "string",
          "name": "",
          "type": "string"
        }
      ],
      "stateMutability": "view",
      "type": "function",
      "constant": true
    },
    {
      "inputs": [
        {
          "internalType": "address",
          "name": "from",
          "type": "address"
        },
        {
          "internalType": "address",
          "name": "to",
          "type": "address"
        },
        {
          "internalType": "uint256",
          "name": "tokenId",
          "type": "uint256"
        }
      ],
      "name": "transferFrom",
      "outputs": [],
      "stateMutability": "nonpayable",
      "type": "function"
    },
    {
      "inputs": [
        {
          "internalType": "address",
          "name": "newOwner",
          "type": "address"
        }
      ],
      "name": "transferOwnership",
      "outputs": [],
      "stateMutability": "nonpayable",
      "type": "function"
    },
    {
      "inputs": [
        {
          "internalType": "uint256",
          "name": "tokenId",
          "type": "uint256"
        }
      ],
      "name": "getTokenDetails",
      "outputs": [
        {
          "components": [
            {
              "internalType": "uint8",
              "name": "damage",
              "type": "uint8"
            },
            {
              "internalType": "uint8",
              "name": "magic",
              "type": "uint8"
            },
            {
              "internalType": "uint256",
              "name": "lastMeal",
              "type": "uint256"
            },
            {
              "internalType": "uint256",
              "name": "endurance",
              "type": "uint256"
            }
          ],
          "internalType": "struct Token.Pet",
          "name": "",
          "type": "tuple"
        }
      ],
      "stateMutability": "view",
      "type": "function",
      "constant": true
    },
    {
      "inputs": [
        {
          "internalType": "uint8",
          "name": "damage",
          "type": "uint8"
        },
        {
          "internalType": "uint8",
          "name": "magic",
          "type": "uint8"
        },
        {
          "internalType": "uint256",
          "name": "endurance",
          "type": "uint256"
        }
      ],
      "name": "mint",
      "outputs": [],
      "stateMutability": "nonpayable",
      "type": "function"
    },
    {
      "inputs": [
        {
          "internalType": "uint256",
          "name": "tokenId",
          "type": "uint256"
        }
      ],
      "name": "feed",
      "outputs": [],
      "stateMutability": "nonpayable",
      "type": "function"
    },
    {
      "inputs": [
        {
          "internalType": "address",
          "name": "user",
          "type": "address"
        }
      ],
      "name": "getAllTokensForUser",
      "outputs": [
        {
          "internalType": "uint256[]",
          "name": "",
          "type": "uint256[]"
        }
      ],
      "stateMutability": "view",
      "type": "function",
      "constant": true
    }
  ],
  "bytecode": "0x608060405260006007553480156200001657600080fd5b50604051620035df380380620035df83398181016040528101906200003c9190620003b5565b818181600090805190602001906200005692919062000168565b5080600190805190602001906200006f92919062000168565b50505062000092620000866200009a60201b60201c565b620000a260201b60201c565b50506200049f565b600033905090565b6000600660009054906101000a900473ffffffffffffffffffffffffffffffffffffffff16905081600660006101000a81548173ffffffffffffffffffffffffffffffffffffffff021916908373ffffffffffffffffffffffffffffffffffffffff1602179055508173ffffffffffffffffffffffffffffffffffffffff168173ffffffffffffffffffffffffffffffffffffffff167f8be0079c531659141344cd1fd0a4f28419497f9722a3daafe3b4186f6b6457e060405160405180910390a35050565b828054620001769062000469565b90600052602060002090601f0160209004810192826200019a5760008555620001e6565b82601f10620001b557805160ff1916838001178555620001e6565b82800160010185558215620001e6579182015b82811115620001e5578251825591602001919060010190620001c8565b5b509050620001f59190620001f9565b5090565b5b8082111562000214576000816000905550600101620001fa565b5090565b6000604051905090565b600080fd5b600080fd5b600080fd5b600080fd5b6000601f19601f8301169050919050565b7f4e487b7100000000000000000000000000000000000000000000000000000000600052604160045260246000fd5b620002818262000236565b810181811067ffffffffffffffff82111715620002a357620002a262000247565b5b80604052505050565b6000620002b862000218565b9050620002c6828262000276565b919050565b600067ffffffffffffffff821115620002e957620002e862000247565b5b620002f48262000236565b9050602081019050919050565b60005b838110156200032157808201518184015260208101905062000304565b8381111562000331576000848401525b50505050565b60006200034e6200034884620002cb565b620002ac565b9050828152602081018484840111156200036d576200036c62000231565b5b6200037a84828562000301565b509392505050565b600082601f8301126200039a57620003996200022c565b5b8151620003ac84826020860162000337565b91505092915050565b60008060408385031215620003cf57620003ce62000222565b5b600083015167ffffffffffffffff811115620003f057620003ef62000227565b5b620003fe8582860162000382565b925050602083015167ffffffffffffffff81111562000422576200042162000227565b5b620004308582860162000382565b9150509250929050565b7f4e487b7100000000000000000000000000000000000000000000000000000000600052602260045260246000fd5b600060028204905060018216806200048257607f821691505b602082108114156200049957620004986200043a565b5b50919050565b61313080620004af6000396000f3fe608060405234801561001057600080fd5b506004361061012c5760003560e01c80638da5cb5b116100ad578063c87b56dd11610071578063c87b56dd14610341578063e985e9c514610371578063eb22ed32146103a1578063f2fde38b146103bd578063f59dfdfb146103d95761012c565b80638da5cb5b1461029d57806395d89b41146102bb578063a22cb465146102d9578063b88d4fde146102f5578063c1e03728146103115761012c565b806342842e0e116100f457806342842e0e146101e75780636352211e1461020357806370a0823114610233578063715018a61461026357806382de8fe91461026d5761012c565b806301ffc9a71461013157806306fdde0314610161578063081812fc1461017f578063095ea7b3146101af57806323b872dd146101cb575b600080fd5b61014b60048036038101906101469190611dca565b6103f5565b6040516101589190611e12565b60405180910390f35b6101696104d7565b6040516101769190611ec6565b60405180910390f35b61019960048036038101906101949190611f1e565b610569565b6040516101a69190611f8c565b60405180910390f35b6101c960048036038101906101c49190611fd3565b6105ee565b005b6101e560048036038101906101e09190612013565b610706565b005b61020160048036038101906101fc9190612013565b610766565b005b61021d60048036038101906102189190611f1e565b610786565b60405161022a9190611f8c565b60405180910390f35b61024d60048036038101906102489190612066565b610838565b60405161025a91906120a2565b60405180910390f35b61026b6108f0565b005b61028760048036038101906102829190612066565b610978565b604051610294919061217b565b60405180910390f35b6102a5610ace565b6040516102b29190611f8c565b60405180910390f35b6102c3610af8565b6040516102d09190611ec6565b60405180910390f35b6102f360048036038101906102ee91906121c9565b610b8a565b005b61030f600480360381019061030a919061233e565b610d0b565b005b61032b60048036038101906103269190611f1e565b610d6d565b6040516103389190612432565b60405180910390f35b61035b60048036038101906103569190611f1e565b610de8565b6040516103689190611ec6565b60405180910390f35b61038b6004803603810190610386919061244d565b610e8f565b6040516103989190611e12565b60405180910390f35b6103bb60048036038101906103b691906124b9565b610f23565b005b6103d760048036038101906103d29190612066565b61105d565b005b6103f360048036038101906103ee9190611f1e565b611155565b005b60007f80ac58cd000000000000000000000000000000000000000000000000000000007bffffffffffffffffffffffffffffffffffffffffffffffffffffffff1916827bffffffffffffffffffffffffffffffffffffffffffffffffffffffff191614806104c057507f5b5e139f000000000000000000000000000000000000000000000000000000007bffffffffffffffffffffffffffffffffffffffffffffffffffffffff1916827bffffffffffffffffffffffffffffffffffffffffffffffffffffffff1916145b806104d057506104cf82611198565b5b9050919050565b6060600080546104e69061253b565b80601f01602080910402602001604051908101604052809291908181526020018280546105129061253b565b801561055f5780601f106105345761010080835404028352916020019161055f565b820191906000526020600020905b81548152906001019060200180831161054257829003601f168201915b5050505050905090565b600061057482611202565b6105b3576040517f08c379a00000000000000000000000000000000000000000000000000000000081526004016105aa906125df565b60405180910390fd5b6004600083815260200190815260200160002060009054906101000a900473ffffffffffffffffffffffffffffffffffffffff169050919050565b60006105f982610786565b90508073ffffffffffffffffffffffffffffffffffffffff168373ffffffffffffffffffffffffffffffffffffffff16141561066a576040517f08c379a000000000000000000000000000000000000000000000000000000000815260040161066190612671565b60405180910390fd5b8073ffffffffffffffffffffffffffffffffffffffff1661068961126e565b73ffffffffffffffffffffffffffffffffffffffff1614806106b857506106b7816106b261126e565b610e8f565b5b6106f7576040517f08c379a00000000000000000000000000000000000000000000000000000000081526004016106ee90612703565b60405180910390fd5b6107018383611276565b505050565b61071761071161126e565b8261132f565b610756576040517f08c379a000000000000000000000000000000000000000000000000000000000815260040161074d90612795565b60405180910390fd5b61076183838361140d565b505050565b61078183838360405180602001604052806000815250610d0b565b505050565b6000806002600084815260200190815260200160002060009054906101000a900473ffffffffffffffffffffffffffffffffffffffff169050600073ffffffffffffffffffffffffffffffffffffffff168173ffffffffffffffffffffffffffffffffffffffff16141561082f576040517f08c379a000000000000000000000000000000000000000000000000000000000815260040161082690612827565b60405180910390fd5b80915050919050565b60008073ffffffffffffffffffffffffffffffffffffffff168273ffffffffffffffffffffffffffffffffffffffff1614156108a9576040517f08c379a00000000000000000000000000000000000000000000000000000000081526004016108a0906128b9565b60405180910390fd5b600360008373ffffffffffffffffffffffffffffffffffffffff1673ffffffffffffffffffffffffffffffffffffffff168152602001908152602001600020549050919050565b6108f861126e565b73ffffffffffffffffffffffffffffffffffffffff16610916610ace565b73ffffffffffffffffffffffffffffffffffffffff161461096c576040517f08c379a000000000000000000000000000000000000000000000000000000000815260040161096390612925565b60405180910390fd5b6109766000611669565b565b6060600061098583610838565b905060008114156109e257600067ffffffffffffffff8111156109ab576109aa612213565b5b6040519080825280602002602001820160405280156109d95781602001602082028036833780820191505090505b50915050610ac9565b60008167ffffffffffffffff8111156109fe576109fd612213565b5b604051908082528060200260200182016040528015610a2c5781602001602082028036833780820191505090505b509050600060075490506000805b82811015610ac0578673ffffffffffffffffffffffffffffffffffffffff16610a6282610786565b73ffffffffffffffffffffffffffffffffffffffff161415610aad5780848381518110610a9257610a91612945565b5b6020026020010181815250508180610aa9906129a3565b9250505b8080610ab8906129a3565b915050610a3a565b83955050505050505b919050565b6000600660009054906101000a900473ffffffffffffffffffffffffffffffffffffffff16905090565b606060018054610b079061253b565b80601f0160208091040260200160405190810160405280929190818152602001828054610b339061253b565b8015610b805780601f10610b5557610100808354040283529160200191610b80565b820191906000526020600020905b815481529060010190602001808311610b6357829003601f168201915b5050505050905090565b610b9261126e565b73ffffffffffffffffffffffffffffffffffffffff168273ffffffffffffffffffffffffffffffffffffffff161415610c00576040517f08c379a0000000000000000000000000000000000000000000000000000000008152600401610bf790612a38565b60405180910390fd5b8060056000610c0d61126e565b73ffffffffffffffffffffffffffffffffffffffff1673ffffffffffffffffffffffffffffffffffffffff16815260200190815260200160002060008473ffffffffffffffffffffffffffffffffffffffff1673ffffffffffffffffffffffffffffffffffffffff16815260200190815260200160002060006101000a81548160ff0219169083151502179055508173ffffffffffffffffffffffffffffffffffffffff16610cba61126e565b73ffffffffffffffffffffffffffffffffffffffff167f17307eab39ab6107e8899845ad3d59bd9653f200f220920489ca2b5937696c3183604051610cff9190611e12565b60405180910390a35050565b610d1c610d1661126e565b8361132f565b610d5b576040517f08c379a0000000000000000000000000000000000000000000000000000000008152600401610d5290612795565b60405180910390fd5b610d678484848461172f565b50505050565b610d75611d30565b600860008381526020019081526020016000206040518060800160405290816000820160009054906101000a900460ff1660ff1660ff1681526020016000820160019054906101000a900460ff1660ff1660ff168152602001600182015481526020016002820154815250509050919050565b6060610df382611202565b610e32576040517f08c379a0000000000000000000000000000000000000000000000000000000008152600401610e2990612aca565b60405180910390fd5b6000610e3c61178b565b90506000815111610e5c5760405180602001604052806000815250610e87565b80610e66846117a2565b604051602001610e77929190612b26565b6040516020818303038152906040525b915050919050565b6000600560008473ffffffffffffffffffffffffffffffffffffffff1673ffffffffffffffffffffffffffffffffffffffff16815260200190815260200160002060008373ffffffffffffffffffffffffffffffffffffffff1673ffffffffffffffffffffffffffffffffffffffff16815260200190815260200160002060009054906101000a900460ff16905092915050565b610f2b61126e565b73ffffffffffffffffffffffffffffffffffffffff16610f49610ace565b73ffffffffffffffffffffffffffffffffffffffff1614610f9f576040517f08c379a0000000000000000000000000000000000000000000000000000000008152600401610f9690612925565b60405180910390fd5b60405180608001604052808460ff1681526020018360ff1681526020014281526020018281525060086000600754815260200190815260200160002060008201518160000160006101000a81548160ff021916908360ff16021790555060208201518160000160016101000a81548160ff021916908360ff160217905550604082015181600101556060820151816002015590505061104033600754611903565b60076000815480929190611053906129a3565b9190505550505050565b61106561126e565b73ffffffffffffffffffffffffffffffffffffffff16611083610ace565b73ffffffffffffffffffffffffffffffffffffffff16146110d9576040517f08c379a00000000000000000000000000000000000000000000000000000000081526004016110d090612925565b60405180910390fd5b600073ffffffffffffffffffffffffffffffffffffffff168173ffffffffffffffffffffffffffffffffffffffff161415611149576040517f08c379a000000000000000000000000000000000000000000000000000000000815260040161114090612bbc565b60405180910390fd5b61115281611669565b50565b600060086000838152602001908152602001600020905042816002015482600101546111819190612bdc565b1161118b57600080fd5b4281600101819055505050565b60007f01ffc9a7000000000000000000000000000000000000000000000000000000007bffffffffffffffffffffffffffffffffffffffffffffffffffffffff1916827bffffffffffffffffffffffffffffffffffffffffffffffffffffffff1916149050919050565b60008073ffffffffffffffffffffffffffffffffffffffff166002600084815260200190815260200160002060009054906101000a900473ffffffffffffffffffffffffffffffffffffffff1673ffffffffffffffffffffffffffffffffffffffff1614159050919050565b600033905090565b816004600083815260200190815260200160002060006101000a81548173ffffffffffffffffffffffffffffffffffffffff021916908373ffffffffffffffffffffffffffffffffffffffff160217905550808273ffffffffffffffffffffffffffffffffffffffff166112e983610786565b73ffffffffffffffffffffffffffffffffffffffff167f8c5be1e5ebec7d5bd14f71427d1e84f3dd0314c0f7b2291e5b200ac8c7c3b92560405160405180910390a45050565b600061133a82611202565b611379576040517f08c379a000000000000000000000000000000000000000000000000000000000815260040161137090612ca4565b60405180910390fd5b600061138483610786565b90508073ffffffffffffffffffffffffffffffffffffffff168473ffffffffffffffffffffffffffffffffffffffff1614806113f357508373ffffffffffffffffffffffffffffffffffffffff166113db84610569565b73ffffffffffffffffffffffffffffffffffffffff16145b8061140457506114038185610e8f565b5b91505092915050565b8273ffffffffffffffffffffffffffffffffffffffff1661142d82610786565b73ffffffffffffffffffffffffffffffffffffffff1614611483576040517f08c379a000000000000000000000000000000000000000000000000000000000815260040161147a90612d36565b60405180910390fd5b600073ffffffffffffffffffffffffffffffffffffffff168273ffffffffffffffffffffffffffffffffffffffff1614156114f3576040517f08c379a00000000000000000000000000000000000000000000000000000000081526004016114ea90612dc8565b60405180910390fd5b6114fe838383611921565b611509600082611276565b6001600360008573ffffffffffffffffffffffffffffffffffffffff1673ffffffffffffffffffffffffffffffffffffffff16815260200190815260200160002060008282546115599190612de8565b925050819055506001600360008473ffffffffffffffffffffffffffffffffffffffff1673ffffffffffffffffffffffffffffffffffffffff16815260200190815260200160002060008282546115b09190612bdc565b92505081905550816002600083815260200190815260200160002060006101000a81548173ffffffffffffffffffffffffffffffffffffffff021916908373ffffffffffffffffffffffffffffffffffffffff160217905550808273ffffffffffffffffffffffffffffffffffffffff168473ffffffffffffffffffffffffffffffffffffffff167fddf252ad1be2c89b69c2b068fc378daa952ba7f163c4a11628f55a4df523b3ef60405160405180910390a4505050565b6000600660009054906101000a900473ffffffffffffffffffffffffffffffffffffffff16905081600660006101000a81548173ffffffffffffffffffffffffffffffffffffffff021916908373ffffffffffffffffffffffffffffffffffffffff1602179055508173ffffffffffffffffffffffffffffffffffffffff168173ffffffffffffffffffffffffffffffffffffffff167f8be0079c531659141344cd1fd0a4f28419497f9722a3daafe3b4186f6b6457e060405160405180910390a35050565b61173a84848461140d565b6117468484848461195d565b611785576040517f08c379a000000000000000000000000000000000000000000000000000000000815260040161177c90612e8e565b60405180910390fd5b50505050565b606060405180602001604052806000815250905090565b606060008214156117ea576040518060400160405280600181526020017f300000000000000000000000000000000000000000000000000000000000000081525090506118fe565b600082905060005b6000821461181c578080611805906129a3565b915050600a826118159190612edd565b91506117f2565b60008167ffffffffffffffff81111561183857611837612213565b5b6040519080825280601f01601f19166020018201604052801561186a5781602001600182028036833780820191505090505b5090505b600085146118f7576001826118839190612de8565b9150600a856118929190612f0e565b603061189e9190612bdc565b60f81b8183815181106118b4576118b3612945565b5b60200101907effffffffffffffffffffffffffffffffffffffffffffffffffffffffffffff1916908160001a905350600a856118f09190612edd565b945061186e565b8093505050505b919050565b61191d828260405180602001604052806000815250611af4565b5050565b6000600860008381526020019081526020016000209050428160020154826001015461194d9190612bdc565b1161195757600080fd5b50505050565b600061197e8473ffffffffffffffffffffffffffffffffffffffff16611b4f565b15611ae7578373ffffffffffffffffffffffffffffffffffffffff1663150b7a026119a761126e565b8786866040518563ffffffff1660e01b81526004016119c99493929190612f94565b602060405180830381600087803b1580156119e357600080fd5b505af1925050508015611a1457506040513d601f19601f82011682018060405250810190611a119190612ff5565b60015b611a97573d8060008114611a44576040519150601f19603f3d011682016040523d82523d6000602084013e611a49565b606091505b50600081511415611a8f576040517f08c379a0000000000000000000000000000000000000000000000000000000008152600401611a8690612e8e565b60405180910390fd5b805181602001fd5b63150b7a0260e01b7bffffffffffffffffffffffffffffffffffffffffffffffffffffffff1916817bffffffffffffffffffffffffffffffffffffffffffffffffffffffff191614915050611aec565b600190505b949350505050565b611afe8383611b62565b611b0b600084848461195d565b611b4a576040517f08c379a0000000000000000000000000000000000000000000000000000000008152600401611b4190612e8e565b60405180910390fd5b505050565b600080823b905060008111915050919050565b600073ffffffffffffffffffffffffffffffffffffffff168273ffffffffffffffffffffffffffffffffffffffff161415611bd2576040517f08c379a0000000000000000000000000000000000000000000000000000000008152600401611bc99061306e565b60405180910390fd5b611bdb81611202565b15611c1b576040517f08c379a0000000000000000000000000000000000000000000000000000000008152600401611c12906130da565b60405180910390fd5b611c2760008383611921565b6001600360008473ffffffffffffffffffffffffffffffffffffffff1673ffffffffffffffffffffffffffffffffffffffff1681526020019081526020016000206000828254611c779190612bdc565b92505081905550816002600083815260200190815260200160002060006101000a81548173ffffffffffffffffffffffffffffffffffffffff021916908373ffffffffffffffffffffffffffffffffffffffff160217905550808273ffffffffffffffffffffffffffffffffffffffff16600073ffffffffffffffffffffffffffffffffffffffff167fddf252ad1be2c89b69c2b068fc378daa952ba7f163c4a11628f55a4df523b3ef60405160405180910390a45050565b6040518060800160405280600060ff168152602001600060ff16815260200160008152602001600081525090565b6000604051905090565b600080fd5b600080fd5b60007fffffffff0000000000000000000000000000000000000000000000000000000082169050919050565b611da781611d72565b8114611db257600080fd5b50565b600081359050611dc481611d9e565b92915050565b600060208284031215611de057611ddf611d68565b5b6000611dee84828501611db5565b91505092915050565b60008115159050919050565b611e0c81611df7565b82525050565b6000602082019050611e276000830184611e03565b92915050565b600081519050919050565b600082825260208201905092915050565b60005b83811015611e67578082015181840152602081019050611e4c565b83811115611e76576000848401525b50505050565b6000601f19601f8301169050919050565b6000611e9882611e2d565b611ea28185611e38565b9350611eb2818560208601611e49565b611ebb81611e7c565b840191505092915050565b60006020820190508181036000830152611ee08184611e8d565b905092915050565b6000819050919050565b611efb81611ee8565b8114611f0657600080fd5b50565b600081359050611f1881611ef2565b92915050565b600060208284031215611f3457611f33611d68565b5b6000611f4284828501611f09565b91505092915050565b600073ffffffffffffffffffffffffffffffffffffffff82169050919050565b6000611f7682611f4b565b9050919050565b611f8681611f6b565b82525050565b6000602082019050611fa16000830184611f7d565b92915050565b611fb081611f6b565b8114611fbb57600080fd5b50565b600081359050611fcd81611fa7565b92915050565b60008060408385031215611fea57611fe9611d68565b5b6000611ff885828601611fbe565b925050602061200985828601611f09565b9150509250929050565b60008060006060848603121561202c5761202b611d68565b5b600061203a86828701611fbe565b935050602061204b86828701611fbe565b925050604061205c86828701611f09565b9150509250925092565b60006020828403121561207c5761207b611d68565b5b600061208a84828501611fbe565b91505092915050565b61209c81611ee8565b82525050565b60006020820190506120b76000830184612093565b92915050565b600081519050919050565b600082825260208201905092915050565b6000819050602082019050919050565b6120f281611ee8565b82525050565b600061210483836120e9565b60208301905092915050565b6000602082019050919050565b6000612128826120bd565b61213281856120c8565b935061213d836120d9565b8060005b8381101561216e57815161215588826120f8565b975061216083612110565b925050600181019050612141565b5085935050505092915050565b60006020820190508181036000830152612195818461211d565b905092915050565b6121a681611df7565b81146121b157600080fd5b50565b6000813590506121c38161219d565b92915050565b600080604083850312156121e0576121df611d68565b5b60006121ee85828601611fbe565b92505060206121ff858286016121b4565b9150509250929050565b600080fd5b600080fd5b7f4e487b7100000000000000000000000000000000000000000000000000000000600052604160045260246000fd5b61224b82611e7c565b810181811067ffffffffffffffff8211171561226a57612269612213565b5b80604052505050565b600061227d611d5e565b90506122898282612242565b919050565b600067ffffffffffffffff8211156122a9576122a8612213565b5b6122b282611e7c565b9050602081019050919050565b82818337600083830152505050565b60006122e16122dc8461228e565b612273565b9050828152602081018484840111156122fd576122fc61220e565b5b6123088482856122bf565b509392505050565b600082601f83011261232557612324612209565b5b81356123358482602086016122ce565b91505092915050565b6000806000806080858703121561235857612357611d68565b5b600061236687828801611fbe565b945050602061237787828801611fbe565b935050604061238887828801611f09565b925050606085013567ffffffffffffffff8111156123a9576123a8611d6d565b5b6123b587828801612310565b91505092959194509250565b600060ff82169050919050565b6123d7816123c1565b82525050565b6080820160008201516123f360008501826123ce565b50602082015161240660208501826123ce565b50604082015161241960408501826120e9565b50606082015161242c60608501826120e9565b50505050565b600060808201905061244760008301846123dd565b92915050565b6000806040838503121561246457612463611d68565b5b600061247285828601611fbe565b925050602061248385828601611fbe565b9150509250929050565b612496816123c1565b81146124a157600080fd5b50565b6000813590506124b38161248d565b92915050565b6000806000606084860312156124d2576124d1611d68565b5b60006124e0868287016124a4565b93505060206124f1868287016124a4565b925050604061250286828701611f09565b9150509250925092565b7f4e487b7100000000000000000000000000000000000000000000000000000000600052602260045260246000fd5b6000600282049050600182168061255357607f821691505b602082108114156125675761256661250c565b5b50919050565b7f4552433732313a20617070726f76656420717565727920666f72206e6f6e657860008201527f697374656e7420746f6b656e0000000000000000000000000000000000000000602082015250565b60006125c9602c83611e38565b91506125d48261256d565b604082019050919050565b600060208201905081810360008301526125f8816125bc565b9050919050565b7f4552433732313a20617070726f76616c20746f2063757272656e74206f776e6560008201527f7200000000000000000000000000000000000000000000000000000000000000602082015250565b600061265b602183611e38565b9150612666826125ff565b604082019050919050565b6000602082019050818103600083015261268a8161264e565b9050919050565b7f4552433732313a20617070726f76652063616c6c6572206973206e6f74206f7760008201527f6e6572206e6f7220617070726f76656420666f7220616c6c0000000000000000602082015250565b60006126ed603883611e38565b91506126f882612691565b604082019050919050565b6000602082019050818103600083015261271c816126e0565b9050919050565b7f4552433732313a207472616e736665722063616c6c6572206973206e6f74206f60008201527f776e6572206e6f7220617070726f766564000000000000000000000000000000602082015250565b600061277f603183611e38565b915061278a82612723565b604082019050919050565b600060208201905081810360008301526127ae81612772565b9050919050565b7f4552433732313a206f776e657220717565727920666f72206e6f6e657869737460008201527f656e7420746f6b656e0000000000000000000000000000000000000000000000602082015250565b6000612811602983611e38565b915061281c826127b5565b604082019050919050565b6000602082019050818103600083015261284081612804565b9050919050565b7f4552433732313a2062616c616e636520717565727920666f7220746865207a6560008201527f726f206164647265737300000000000000000000000000000000000000000000602082015250565b60006128a3602a83611e38565b91506128ae82612847565b604082019050919050565b600060208201905081810360008301526128d281612896565b9050919050565b7f4f776e61626c653a2063616c6c6572206973206e6f7420746865206f776e6572600082015250565b600061290f602083611e38565b915061291a826128d9565b602082019050919050565b6000602082019050818103600083015261293e81612902565b9050919050565b7f4e487b7100000000000000000000000000000000000000000000000000000000600052603260045260246000fd5b7f4e487b7100000000000000000000000000000000000000000000000000000000600052601160045260246000fd5b60006129ae82611ee8565b91507fffffffffffffffffffffffffffffffffffffffffffffffffffffffffffffffff8214156129e1576129e0612974565b5b600182019050919050565b7f4552433732313a20617070726f766520746f2063616c6c657200000000000000600082015250565b6000612a22601983611e38565b9150612a2d826129ec565b602082019050919050565b60006020820190508181036000830152612a5181612a15565b9050919050565b7f4552433732314d657461646174613a2055524920717565727920666f72206e6f60008201527f6e6578697374656e7420746f6b656e0000000000000000000000000000000000602082015250565b6000612ab4602f83611e38565b9150612abf82612a58565b604082019050919050565b60006020820190508181036000830152612ae381612aa7565b9050919050565b600081905092915050565b6000612b0082611e2d565b612b0a8185612aea565b9350612b1a818560208601611e49565b80840191505092915050565b6000612b328285612af5565b9150612b3e8284612af5565b91508190509392505050565b7f4f776e61626c653a206e6577206f776e657220697320746865207a65726f206160008201527f6464726573730000000000000000000000000000000000000000000000000000602082015250565b6000612ba6602683611e38565b9150612bb182612b4a565b604082019050919050565b60006020820190508181036000830152612bd581612b99565b9050919050565b6000612be782611ee8565b9150612bf283611ee8565b9250827fffffffffffffffffffffffffffffffffffffffffffffffffffffffffffffffff03821115612c2757612c26612974565b5b828201905092915050565b7f4552433732313a206f70657261746f7220717565727920666f72206e6f6e657860008201527f697374656e7420746f6b656e0000000000000000000000000000000000000000602082015250565b6000612c8e602c83611e38565b9150612c9982612c32565b604082019050919050565b60006020820190508181036000830152612cbd81612c81565b9050919050565b7f4552433732313a207472616e73666572206f6620746f6b656e2074686174206960008201527f73206e6f74206f776e0000000000000000000000000000000000000000000000602082015250565b6000612d20602983611e38565b9150612d2b82612cc4565b604082019050919050565b60006020820190508181036000830152612d4f81612d13565b9050919050565b7f4552433732313a207472616e7366657220746f20746865207a65726f2061646460008201527f7265737300000000000000000000000000000000000000000000000000000000602082015250565b6000612db2602483611e38565b9150612dbd82612d56565b604082019050919050565b60006020820190508181036000830152612de181612da5565b9050919050565b6000612df382611ee8565b9150612dfe83611ee8565b925082821015612e1157612e10612974565b5b828203905092915050565b7f4552433732313a207472616e7366657220746f206e6f6e20455243373231526560008201527f63656976657220696d706c656d656e7465720000000000000000000000000000602082015250565b6000612e78603283611e38565b9150612e8382612e1c565b604082019050919050565b60006020820190508181036000830152612ea781612e6b565b9050919050565b7f4e487b7100000000000000000000000000000000000000000000000000000000600052601260045260246000fd5b6000612ee882611ee8565b9150612ef383611ee8565b925082612f0357612f02612eae565b5b828204905092915050565b6000612f1982611ee8565b9150612f2483611ee8565b925082612f3457612f33612eae565b5b828206905092915050565b600081519050919050565b600082825260208201905092915050565b6000612f6682612f3f565b612f708185612f4a565b9350612f80818560208601611e49565b612f8981611e7c565b840191505092915050565b6000608082019050612fa96000830187611f7d565b612fb66020830186611f7d565b612fc36040830185612093565b8181036060830152612fd58184612f5b565b905095945050505050565b600081519050612fef81611d9e565b92915050565b60006020828403121561300b5761300a611d68565b5b600061301984828501612fe0565b91505092915050565b7f4552433732313a206d696e7420746f20746865207a65726f2061646472657373600082015250565b6000613058602083611e38565b915061306382613022565b602082019050919050565b600060208201905081810360008301526130878161304b565b9050919050565b7f4552433732313a20746f6b656e20616c7265616479206d696e74656400000000600082015250565b60006130c4601c83611e38565b91506130cf8261308e565b602082019050919050565b600060208201905081810360008301526130f3816130b7565b905091905056fea26469706673582212204f33fe8068fd15b6a67282085eb7f431bf6e1202ceec0ed1804c8e8d036f9c4764736f6c63430008090033",
  "immutableReferences": {},
  "source": "pragma solidity 0.8.9;\r\n\r\nimport '../node_modules/@openzeppelin/contracts/token/ERC721/ERC721.sol';\r\nimport '../node_modules/@openzeppelin/contracts/access/Ownable.sol';\r\n\r\ncontract Token is ERC721, Ownable {\r\n    struct Pet {\r\n        uint8 damage;\r\n        uint8 magic;\r\n        uint256 lastMeal;\r\n        uint256 endurance;\r\n\r\n    }\r\n\r\n    uint256 nextId = 0;\r\n\r\n    mapping (uint256 =>Pet) private _tokenDetails;\r\n\r\n    constructor(string memory name, string memory symbol) ERC721(name,symbol){\r\n\r\n    }\r\n\r\n    function getTokenDetails(uint256 tokenId) public view returns (Pet memory) {\r\n        return _tokenDetails[tokenId];\r\n    }\r\n\r\n    function mint(uint8 damage, uint8 magic, uint256 endurance) public onlyOwner {\r\n        _tokenDetails[nextId] = Pet(damage, magic, block.timestamp, endurance);\r\n        _safeMint(msg.sender, nextId);\r\n        nextId++;\r\n    }\r\n\r\n    function feed(uint256 tokenId) public {\r\n        Pet storage pet = _tokenDetails[tokenId];\r\n        require(pet.lastMeal + pet.endurance > block.timestamp);\r\n        pet.lastMeal = block.timestamp;\r\n    }\r\n\r\n    function getAllTokensForUser(address user) public view returns (uint256[] memory) {\r\n        uint256 tokenCount = balanceOf(user);\r\n        if (tokenCount == 0) {\r\n            return new uint256[](0);\r\n        }\r\n        else{\r\n            uint[] memory result = new uint256[](tokenCount);\r\n            uint256 totalPets = nextId;\r\n            uint256 resultIndex = 0;\r\n            uint256 i;\r\n            for (i = 0; i < totalPets; i++) {\r\n                if (ownerOf(i) == user) {\r\n                    result[resultIndex] = i;\r\n                    resultIndex++;\r\n                }\r\n            }\r\n            return result;\r\n        }\r\n    }\r\n\r\n    function _beforeTokenTransfer(address from, address to, uint256 tokenId) internal override {\r\n        Pet storage pet = _tokenDetails[tokenId];\r\n        require(pet.lastMeal + pet.endurance > block.timestamp); //Pet still alive\r\n    }\r\n\r\n\r\n}\r\n",
  "sourcePath": "C:\\Users\\Moustafa\\moustafadata\\Dev\\Projects\\nft-game\\contracts\\Token.sol",
  "compiler": {
    "name": "solc",
    "version": "0.8.9+commit.e5eed63a.Emscripten.clang"
  },
  "schemaVersion": "3.4.3",
  "updatedAt": "2021-11-14T04:58:48.563Z",
  "networkType": "ethereum",
  "devdoc": {
    "kind": "dev",
    "methods": {
      "approve(address,uint256)": {
        "details": "See {IERC721-approve}."
      },
      "balanceOf(address)": {
        "details": "See {IERC721-balanceOf}."
      },
      "getApproved(uint256)": {
        "details": "See {IERC721-getApproved}."
      },
      "isApprovedForAll(address,address)": {
        "details": "See {IERC721-isApprovedForAll}."
      },
      "name()": {
        "details": "See {IERC721Metadata-name}."
      },
      "owner()": {
        "details": "Returns the address of the current owner."
      },
      "ownerOf(uint256)": {
        "details": "See {IERC721-ownerOf}."
      },
      "renounceOwnership()": {
        "details": "Leaves the contract without owner. It will not be possible to call `onlyOwner` functions anymore. Can only be called by the current owner. NOTE: Renouncing ownership will leave the contract without an owner, thereby removing any functionality that is only available to the owner."
      },
      "safeTransferFrom(address,address,uint256)": {
        "details": "See {IERC721-safeTransferFrom}."
      },
      "safeTransferFrom(address,address,uint256,bytes)": {
        "details": "See {IERC721-safeTransferFrom}."
      },
      "setApprovalForAll(address,bool)": {
        "details": "See {IERC721-setApprovalForAll}."
      },
      "supportsInterface(bytes4)": {
        "details": "See {IERC165-supportsInterface}."
      },
      "symbol()": {
        "details": "See {IERC721Metadata-symbol}."
      },
      "tokenURI(uint256)": {
        "details": "See {IERC721Metadata-tokenURI}."
      },
      "transferFrom(address,address,uint256)": {
        "details": "See {IERC721-transferFrom}."
      },
      "transferOwnership(address)": {
        "details": "Transfers ownership of the contract to a new account (`newOwner`). Can only be called by the current owner."
      }
    },
    "version": 1
  },
  "userdoc": {
    "kind": "user",
    "methods": {},
    "version": 1
  }
}